:020000040800F2
:1000000088060020CD010008D5010008D7010008AE
:10001000D9010008DB010008DD0100080000000034
:10002000000000000000000000000000DF010008E8
:10003000E101000800000000E3010008E5010008FC
:10004000E7010008E7010008E7010008E7010008F0
:10005000E7010008E7010008E7010008E7010008E0
:10006000E7010008E7010008E7010008E7010008D0
:10007000E7010008E7010008E7010008E7010008C0
:10008000E7010008E7010008E7010008E7010008B0
:10009000E7010008E7010008E7010008E7010008A0
:1000A000E7010008E7010008E7010008E701000890
:1000B000E7010008E7010008E7010008E701000880
:1000C000E7010008E7010008E7010008E701000870
:1000D000E7010008E7010008E7010008E701000860
:1000E000E7010008E7010008E7010008E701000850
:1000F000E7010008E7010008E7010008E701000840
:10010000E7010008E7010008E7010008E70100082F
:10011000E7010008E7010008E7010008E70100081F
:10012000E7010008E7010008E7010008E70100080F
:1001300000F002F800F03AF80AA090E8000C8244BF
:100140008344AAF10107DA4501D100F02FF8AFF29C
:10015000090EBAE80F0013F0010F18BFFB1A43F0A5
:1001600001031847C00B0000E00B0000103A24BF49
:1001700078C878C1FAD8520724BF30C830C144BF0C
:1001800004680C607047000000230024002500264E
:10019000103A28BF78C1FBD8520728BF30C148BFEA
:1001A0000B6070471FB51FBD10B510BD00F031F8D2
:1001B0001146FFF7F7FF00F0A5FB00F04FF803B47E
:1001C000FFF7F2FF03BC00F057F800000948804732
:1001D00009480047FEE7FEE7FEE7FEE7FEE7FEE729
:1001E000FEE7FEE7FEE7FEE704480549054A064B41
:1001F0007047000035080008310100088800002021
:10020000880600208802002088020020704770477E
:100210007047754600F02CF8AE4605006946534617
:1002200020F00700854618B020B5FFF7DDFFBDE8D8
:1002300020404FF000064FF000074FF000084FF04D
:10024000000B21F00701AC46ACE8C009ACE8C009DE
:10025000ACE8C009ACE8C0098D46704710B504464B
:10026000AFF300802046BDE81040FFF7A8BF0000B4
:10027000004870472800002001491820ABBEFEE767
:100280002600020070472DE9F041024600250026B5
:10029000002000230024002791F803C00CF00F0574
:1002A00091F803C00CF0100CBCF1000F03D091F8D2
:1002B00002C04CEA050591F800C0BCF1000F31D036
:1002C000146800202BE04FF0010C0CFA00F3B1F899
:1002D00000C00CEA03069E4220D183004FF00F0CB1
:1002E0000CFA03F7BC4305FA03FC4CEA040491F84A
:1002F00003C0BCF1280F06D14FF0010C0CFA00FC32
:10030000C2F814C00AE091F803C0BCF1480F05D14F
:100310004FF0010C0CFA00FCC2F810C0401C082879
:10032000D1D31460B1F800C0BCF1FF0F34DD5468C4
:1003300000202EE000F1080C4FF0010808FA0CF341
:10034000B1F800C00CEA03069E4221D183004FF0B1
:100350000F0C0CFA03F7BC4305FA03FC4CEA040447
:1003600091F803C0BCF1280F05D100F1080C08FA80
:100370000CF8C2F8148091F803C0BCF1480F07D103
:1003800000F1080C4FF0010808FA0CF8C2F81080D0
:10039000401C0828CED35460BDE8F08102460020FE
:1003A00093680B400BB1012000E0002070474161D1
:1003B00070470161704708B56946042000F076F97E
:1003C0009DF801009DF8001000EB012008BD08B564
:1003D0006946022000F014F89DF801009DF8001015
:1003E00000EB012008BD10B500F092F8002144F2A6
:1003F000275000F025F80521480200F021F810BD33
:1004000070B505460C4600F019F9802000F0EAF8B6
:10041000284600F0E7F800F011F9812000F0E2F83A
:1004200000F094F82070641C012000F047F800F000
:100430008DF82070002000F041F800F017F970BD31
:1004400038B504460D46200A8DF80000E0B28DF85C
:10045000010000F0F3F8802000F0C4F8284600F016
:10046000C1F89DF8000000F0BDF8641C9DF8010083
:1004700000F0B8F800F0FAF838BD000010B52021FF
:100480000D48FFF796FF00F089F840210A48FFF772
:1004900090FF00F031F820210748FFF77FFF012887
:1004A00001D1002400E0012440210348FFF77FFF31
:1004B00000F086F8204610BD0008014010B5044643
:1004C00040210C48FFF773FF012C04D1202109487B
:1004D000FFF76DFF03E020210648FFF76AFF402188
:1004E0000448FFF766FF00F007F840210148FFF7D6
:1004F0005EFF10BD00080140012006E000BF00BF04
:1005000000BF00BF00BF411EC8B20028F6DC704724
:1005100008B50121042000F009F910208DF803002E
:100520006020ADF8000003208DF8020069460648FF
:10053000FFF7A9FE20210448FFF73BFF40210248B6
:10054000FFF737FF08BD00000008014070B5002428
:1005500000F024F8002518E040210F48FFF729FF9C
:100560006006040E20210C48FFF718FF012802D175
:1005700044F0010401E004F0FE0440210648FFF7C6
:1005800016FFFFF7B9FF681CC5B2082DE4DB00F0C9
:1005900017F8204670BD00000008014008B548204B
:1005A0008DF803002020ADF8000003208DF8020034
:1005B00069460248FFF767FE08BD000000080140D9
:1005C00008B510208DF803002020ADF800000320AE
:1005D0008DF8020069460248FFF755FE08BD00008D
:1005E0000008014070B5044640211348FFF7DFFEC4
:1005F00000251BE004F0800020B120210E48FFF709
:10060000D8FE03E020210C48FFF7D1FE40210A4824
:10061000FFF7CFFEFFF770FF40210748FFF7C7FE47
:10062000FFF76AFF6006040E681CC5B2082DE1DB07
:10063000FFF724FF70BD00000008014010B5202125
:100640000948FFF7B6FE40210748FFF7B2FEFFF763
:1006500053FF20210448FFF7AAFEFFF74DFF20219A
:100660000148FFF7A4FE10BD0008014010B520218D
:100670000D48FFF79CFE40210B48FFF79AFEFFF75D
:100680003BFF20210848FFF794FEFFF735FF40218C
:100690000548FFF78CFE40210348FFF78AFE202122
:1006A0000148FFF786FE10BD0008014070B5054601
:1006B0000C46FFF7C3FF8020FFF794FF2846FFF7A3
:1006C00091FFFFF7BBFF8120FFF78CFFFFF73EFF95
:1006D0002070641C0120FFF7F1FEFFF737FF207048
:1006E0000020FFF7EBFEFFF7C1FF70BD08B5012149
:1006F000102000F01BF814208DF803004FF4005078
:10070000ADF8000003208DF8020069460148FFF7AC
:10071000BAFD08BD0010014002490143024A1160C0
:10072000704700000000FA050CED00E029B1064A10
:1007300092690243044B9A6104E0034A926982433E
:10074000014B9A61704700000010024010B500F0A4
:1007500001F810BD0CB500200190009033480068EE
:1007600040F480303149086000BF3048006800F430
:10077000003000900198401C0190009818B9019831
:10078000B0F5A06FF1D12948006800F4003010B135
:100790000120009001E0002000900098012843D142
:1007A0002348006840F010002149086008460068AE
:1007B00020F0030008600846006840F0020008606E
:1007C0001A48406819494860084640684860084629
:1007D000406840F4806048600846406820F47C101F
:1007E00048600846406840F4E810486008460068E1
:1007F00040F08070086000BF0C48006800F0007096
:100800000028F9D00948406820F0030007494860F3
:100810000846406840F00200486000BF0348406856
:1008200000F00C000828F9D10CBD000000100240B7
:100830000020024010B51348006840F00100114943
:10084000086008464068104908400E49486008465C
:1008500000680E4908400B4908600846006820F40B
:10086000802008600846406820F4FE0048604FF48D
:100870001F008860FFF76AFF4FF0006004490860BE
:1008800010BD0000001002400000FFF8FFFFF6FE60
:1008900008ED00E04FF0E021096921F004014FF07C
:1008A000E0221161C21700EB5272D210044B1A60A1
:1008B000194609684FF47A725143024A1160704731
:1008C000000000200400002001460D4A12684A433F
:1008D0004FF0E0235A6100229A6101221A6100BFA1
:1008E0004FF0E022106900F001021AB100F48032EA
:1008F000002AF5D000224FF0E0231A619A61704778
:10090000040000204FF4A060FFF706FF4820FFF727
:10091000C1FFFFF7EBFEFFF766FD38E04FF4005133
:100920001B48FFF744FD4FF49670FFF7CDFF4FF4DF
:1009300000511748FFF73DFD4FF49670FFF7C4FFD5
:10094000FFF745FD134908600846006800F08CF980
:10095000804600F05DF9064600220F4B00F05AF881
:10096000044600F025F80D490860FFF724FD0C4906
:1009700008600C48006800F04BF906460A4A0B4B29
:1009800000F048F8044600F013F806490860C5E78F
:1009900000100140080000200000F43F1800002073
:1009A0000C0000201C0000207B14AE47E17A943F2D
:1009B00021F00042A2F16052B2F5801F01F0004325
:1009C00028BFD2F17F6C0BD95FEA001C43EAC20258
:1009D00042EB507018BF704728BF20F001007047ED
:1009E000B2F5801FBCBF184670474FEA410C1CF59A
:1009F000001F02D2084600F090B970B500F0B4F8BC
:100A000000000089FFF7F6BF4FF00040A0F580001E
:100A100070470000DFF848C170B51CEA111E1EBF08
:100A20001CEA13159EEA0C0F95EA0C0F00F06F807C
:100A300081EA030423EA4C134EEAD47E21EA4C11E6
:100A400041F4801143F48013AE44A1FB024CA0FB9F
:100A50000365AEF17F7E361955EB0C05A1FB034C07
:100A60004CF10003A0FB021C16EB0C06654153F190
:100A70000003094218BF46F0010613F4007F0BD1B2
:100A80004FEA03314FEA0530340341EA155140EA99
:100A900016506FF003020AE04FEAC3214FEAC52067
:100AA000F40241EA555140EA56506FF0020202EB5F
:100AB0002E4201EB025585EACE710AD05FEA440C62
:100AC00018BF24F0004450F1000041F1000120EA79
:100AD000D47040F2FE7C624500D270BDA84214BFC3
:100AE0004FF080444FF04044002E08BF0024BEF178
:100AF000806FA8BFA1F1C041BDE8704080F2828044
:100B00004FF0000001F1C04101F0004170479EEA42
:100B10000C0F0CEA131518BF95EA0C0F06D04FF016
:100B2000000081EA030E0EF0004170BD00F01CF8D9
:100B30008900013E00F007B800F009B84FEA430C05
:100B40005FEA5C5C08D081EA030100F05BB84FEA21
:100B5000410C5FEA5C5CF6D14FF000000149704740
:100B60000000FF070000F87F0EF1020E2EF0030ECA
:100B70005EF8046B364205D4012A43EB030515F5F4
:100B8000001F12D8012841EB010C1CF5001F0CD8E6
:100B90000ED14FEAD17C15F5001F0CEB4C0C0CF17B
:100BA000020C08BF4CEBD37C04E04FF0080C01E0D2
:100BB0004FEAD37C0CEB4C0526FA05F606F0070647
:100BC000B6F1040C06D20EEB860CBDE870404CF07A
:100BD000010C6047DFE80CF0090B02024FF0004106
:100BE0004FF00000A1F5002170BD19461046012804
:100BF00051EB010418BFD4F5001484BF002001F0AC
:100C0000004170BD0808A0F500114FEA310170479E
:100C100043004FEAD30C4FEA3C0C43401FBF400750
:100C20000CF1605113F0FE4F70471CF0006F03D1C0
:100C300000200CF0004170470CF0004343EA507074
:100C400010B540EACC0000F022F800BF000000928E
:100C50004FEA0001FFF7D6BF4FF000414FF0000010
:100C6000A1F5002170470000B0FA80F310FA03F2FA
:100C7000C3F19D030AD0D90501EB1220530638BFFA
:100C8000704700F1010008BF20F0010070470EF12D
:100C9000020E2EF0030E5EF8044B244204D44FEAF9
:100CA0004102B2F17F4F11D84FEA4003B3F17F4FB9
:100CB0000CD80ED14FEAD07CB2F17F4F0CEB4C0C2C
:100CC0000CF1020C08BF4CEBD17C04E04FF0080C97
:100CD00001E04FEAD17C0CEB4C0324FA03F404F05E
:100CE0000704B4F1040C06D20EEB840CBDE81040EE
:100CF0004CF0010C6047DFE80CF0070802024FF0EF
:100D00000040A0F5800010BD0846420018BFD2F197
:100D1000807288BF00F0004010BDFF2141EAD05032
:100D2000C0057047440D00080000002028000000A6
:100D30006C0100086C0D000828000020600600000F
:100D40008801000800000000000000000000000012
:100D50000000000000000000000000000000000093
:0C0D600000000000000000000000000087
:0400000508000131BD
:00000001FF
